{
  "contractName": "LifeInsurance",
  "abi": [
    {
      "inputs": [],
      "stateMutability": "nonpayable",
      "type": "constructor"
    },
    {
      "inputs": [
        {
          "internalType": "uint256",
          "name": "",
          "type": "uint256"
        }
      ],
      "name": "beneficiary",
      "outputs": [
        {
          "internalType": "string",
          "name": "relationship",
          "type": "string"
        },
        {
          "internalType": "string",
          "name": "name",
          "type": "string"
        }
      ],
      "stateMutability": "view",
      "type": "function"
    },
    {
      "inputs": [],
      "name": "getCashValue",
      "outputs": [
        {
          "internalType": "uint256",
          "name": "",
          "type": "uint256"
        }
      ],
      "stateMutability": "view",
      "type": "function"
    },
    {
      "inputs": [],
      "name": "setPremiums",
      "outputs": [],
      "stateMutability": "nonpayable",
      "type": "function"
    },
    {
      "inputs": [
        {
          "internalType": "uint256",
          "name": "percent",
          "type": "uint256"
        }
      ],
      "name": "percCashValue",
      "outputs": [
        {
          "internalType": "uint256",
          "name": "",
          "type": "uint256"
        }
      ],
      "stateMutability": "view",
      "type": "function"
    },
    {
      "inputs": [
        {
          "internalType": "uint256",
          "name": "_id",
          "type": "uint256"
        },
        {
          "internalType": "string",
          "name": "_relationship",
          "type": "string"
        },
        {
          "internalType": "string",
          "name": "_name",
          "type": "string"
        }
      ],
      "name": "beneficiaries",
      "outputs": [],
      "stateMutability": "nonpayable",
      "type": "function"
    },
    {
      "inputs": [
        {
          "internalType": "uint256",
          "name": "_id",
          "type": "uint256"
        },
        {
          "internalType": "string",
          "name": "_policy",
          "type": "string"
        },
        {
          "internalType": "string",
          "name": "_savings",
          "type": "string"
        }
      ],
      "name": "policyType",
      "outputs": [],
      "stateMutability": "nonpayable",
      "type": "function"
    },
    {
      "inputs": [
        {
          "internalType": "uint256",
          "name": "_id",
          "type": "uint256"
        },
        {
          "internalType": "string",
          "name": "_extraCoverage",
          "type": "string"
        },
        {
          "internalType": "string",
          "name": "_charges",
          "type": "string"
        }
      ],
      "name": "extraInsurance",
      "outputs": [],
      "stateMutability": "nonpayable",
      "type": "function"
    },
    {
      "inputs": [
        {
          "internalType": "address payable",
          "name": "beneficiaryAddr",
          "type": "address"
        },
        {
          "internalType": "uint256",
          "name": "percPayout",
          "type": "uint256"
        }
      ],
      "name": "payBenefit",
      "outputs": [],
      "stateMutability": "payable",
      "type": "function"
    }
  ],
  "bytecode": "0x608060405234801561001057600080fd5b506934f086f3b33b6840000060038190555060008060006101000a81548160ff0219169083600181111561004057fe5b0217905550610cf6806100546000396000f3fe60806040526004361061007b5760003560e01c806387f89ed41161004e57806387f89ed414610383578063bae6f8ae146104ec578063d744a9101461053a578063ea893c17146105515761007b565b806346ef761c146100805780635daa3160146101e957806372ed6b75146103095780638674063b14610358575b600080fd5b34801561008c57600080fd5b506101e7600480360360608110156100a357600080fd5b8101908080359060200190929190803590602001906401000000008111156100ca57600080fd5b8201836020820111156100dc57600080fd5b803590602001918460018302840111640100000000831117156100fe57600080fd5b91908080601f016020809104026020016040519081016040528093929190818152602001838380828437600081840152601f19601f8201169050808301925050505050505091929192908035906020019064010000000081111561016157600080fd5b82018360208201111561017357600080fd5b8035906020019184600183028401116401000000008311171561019557600080fd5b91908080601f016020809104026020016040519081016040528093929190818152602001838380828437600081840152601f19601f8201169050808301925050505050505091929192905050506106ba565b005b3480156101f557600080fd5b506102226004803603602081101561020c57600080fd5b8101908080359060200190929190505050610747565b604051808060200180602001838103835285818151815260200191508051906020019080838360005b8381101561026657808201518184015260208101905061024b565b50505050905090810190601f1680156102935780820380516001836020036101000a031916815260200191505b50838103825284818151815260200191508051906020019080838360005b838110156102cc5780820151818401526020810190506102b1565b50505050905090810190601f1680156102f95780820380516001836020036101000a031916815260200191505b5094505050505060405180910390f35b34801561031557600080fd5b506103426004803603602081101561032c57600080fd5b810190808035906020019092919050505061089b565b6040518082815260200191505060405180910390f35b34801561036457600080fd5b5061036d6108d1565b6040518082815260200191505060405180910390f35b34801561038f57600080fd5b506104ea600480360360608110156103a657600080fd5b8101908080359060200190929190803590602001906401000000008111156103cd57600080fd5b8201836020820111156103df57600080fd5b8035906020019184600183028401116401000000008311171561040157600080fd5b91908080601f016020809104026020016040519081016040528093929190818152602001838380828437600081840152601f19601f8201169050808301925050505050505091929192908035906020019064010000000081111561046457600080fd5b82018360208201111561047657600080fd5b8035906020019184600183028401116401000000008311171561049857600080fd5b91908080601f016020809104026020016040519081016040528093929190818152602001838380828437600081840152601f19601f8201169050808301925050505050505091929192905050506108db565b005b6105386004803603604081101561050257600080fd5b81019080803573ffffffffffffffffffffffffffffffffffffffff16906020019092919080359060200190929190505050610968565b005b34801561054657600080fd5b5061054f6109cd565b005b34801561055d57600080fd5b506106b86004803603606081101561057457600080fd5b81019080803590602001909291908035906020019064010000000081111561059b57600080fd5b8201836020820111156105ad57600080fd5b803590602001918460018302840111640100000000831117156105cf57600080fd5b91908080601f016020809104026020016040519081016040528093929190818152602001838380828437600081840152601f19601f8201169050808301925050505050505091929192908035906020019064010000000081111561063257600080fd5b82018360208201111561064457600080fd5b8035906020019184600183028401116401000000008311171561066657600080fd5b91908080601f016020809104026020016040519081016040528093929190818152602001838380828437600081840152601f19601f8201169050808301925050505050505091929192905050506109d7565b005b60016000806101000a81548160ff021916908360018111156106d857fe5b0217905550604051806040016040528083815260200182815250600460008581526020019081526020016000206000820151816000019080519060200190610721929190610bfa565b50602082015181600101908051906020019061073e929190610bfa565b50905050505050565b6004602052806000526040600020600091509050806000018054600181600116156101000203166002900480601f0160208091040260200160405190810160405280929190818152602001828054600181600116156101000203166002900480156107f35780601f106107c8576101008083540402835291602001916107f3565b820191906000526020600020905b8154815290600101906020018083116107d657829003601f168201915b505050505090806001018054600181600116156101000203166002900480601f0160208091040260200160405190810160405280929190818152602001828054600181600116156101000203166002900480156108915780601f1061086657610100808354040283529160200191610891565b820191906000526020600020905b81548152906001019060200180831161087457829003601f168201915b5050505050905082565b6000806108b383600354610a6490919063ffffffff16565b90506108c9606482610aea90919063ffffffff16565b915050919050565b6000600354905090565b60016000806101000a81548160ff021916908360018111156108f957fe5b0217905550604051806040016040528083815260200182815250600660008581526020019081526020016000206000820151816000019080519060200190610942929190610bfa565b50602082015181600101908051906020019061095f929190610bfa565b50905050505050565b60006109738261089b565b905080341461098157600080fd5b8273ffffffffffffffffffffffffffffffffffffffff166108fc349081150290604051600060405180830381858888f193505050501580156109c7573d6000803e3d6000fd5b50505050565b6028600281905550565b60016000806101000a81548160ff021916908360018111156109f557fe5b0217905550604051806040016040528083815260200182815250600560008581526020019081526020016000206000820151816000019080519060200190610a3e929190610bfa565b506020820151816001019080519060200190610a5b929190610bfa565b50905050505050565b600080831415610a775760009050610ae4565b6000828402905082848281610a8857fe5b0414610adf576040517f08c379a0000000000000000000000000000000000000000000000000000000008152600401808060200182810382526021815260200180610ca06021913960400191505060405180910390fd5b809150505b92915050565b6000610b2c83836040518060400160405280601a81526020017f536166654d6174683a206469766973696f6e206279207a65726f000000000000815250610b34565b905092915050565b60008083118290610be0576040517f08c379a00000000000000000000000000000000000000000000000000000000081526004018080602001828103825283818151815260200191508051906020019080838360005b83811015610ba5578082015181840152602081019050610b8a565b50505050905090810190601f168015610bd25780820380516001836020036101000a031916815260200191505b509250505060405180910390fd5b506000838581610bec57fe5b049050809150509392505050565b828054600181600116156101000203166002900490600052602060002090601f016020900481019282601f10610c3b57805160ff1916838001178555610c69565b82800160010185558215610c69579182015b82811115610c68578251825591602001919060010190610c4d565b5b509050610c769190610c7a565b5090565b610c9c91905b80821115610c98576000816000905550600101610c80565b5090565b9056fe536166654d6174683a206d756c7469706c69636174696f6e206f766572666c6f77a264697066735822122048b9ac1d83d093f15a247d9562fcdd792b2ac517a8e981a768555a2daec0f8f864736f6c63430006000033",
  "source": "pragma solidity ^0.6.0;\r\n\r\nimport'@openzeppelin/contracts/math/safemath.sol';\r\n\r\ncontract LifeInsurance{\r\n    using SafeMath for uint;\r\n    enum Statuses {Alive, Deceased}\r\n    Statuses currentStatus;\r\n    \r\n    address payable insurer;\r\n    address payable insured;\r\n    uint premiums;\r\n    uint cashValue;\r\n    \r\n    mapping(uint=>Beneficiary) public beneficiary;\r\n    mapping(uint=> Selection) insuranceType;\r\n    mapping(uint=>moreOptions) Rider;\r\n    \r\n    constructor() public{\r\n        cashValue = 250000 ether;\r\n        currentStatus= Statuses.Alive;\r\n    }\r\n    \r\n    struct Beneficiary{\r\n        string relationship;\r\n        string name;\r\n    }\r\n    \r\n    struct Selection{\r\n        string policy;\r\n        string savings;\r\n    }\r\n    \r\n    struct moreOptions{\r\n        string extraCoverage;\r\n        string charges;\r\n    }\r\n\r\n    function getCashValue() public view returns(uint){\r\n        return cashValue;\r\n    }\r\n    \r\n    function setPremiums() public {\r\n        premiums = 40;\r\n    }\r\n    \r\n   \r\n    function percCashValue(uint percent) public view returns(uint){\r\n        uint numerator = cashValue.mul(percent);\r\n        return numerator.div(100);\r\n    }\r\n    \r\n    function beneficiaries(uint _id, string memory _relationship, string memory _name) public {\r\n        currentStatus= Statuses.Deceased;\r\n        beneficiary[_id]= Beneficiary(_relationship, _name);\r\n    }\r\n    \r\n    function policyType(uint _id, string memory _policy, string memory _savings) public {\r\n        currentStatus= Statuses.Deceased;\r\n        insuranceType[_id]= Selection(_policy,_savings);\r\n    }\r\n    \r\n    function extraInsurance(uint _id, string memory _extraCoverage, string memory _charges) public {\r\n        currentStatus= Statuses.Deceased;\r\n        Rider[_id]= moreOptions(_extraCoverage,_charges);\r\n    }\r\n    function payBenefit(address payable beneficiaryAddr, uint percPayout) public payable {\r\n        uint payoutAmt = percCashValue(percPayout);\r\n        require(msg.value==payoutAmt);\r\n        beneficiaryAddr.transfer(msg.value);\r\n    }\r\n}\r\n\r\n// contract Distribution is Lifeinsurance {\r\n//     address payable public owner;\r\n \r\n//     mapping(address=>mapping(string=>Beneficiary))public myBeneficiary;\r\n    \r\n//      constructor()public {\r\n//         owner = msg.sender;\r\n//      }\r\n     \r\n//      function beneficts() public payable{\r\n//         owner.transfer(msg.value);\r\n//      }\r\n     \r\n//      function trust(uint _id, string memory name, string memory relationship) public payable {\r\n//          owner;\r\n//      }\r\n// }",
  "sourcePath": "C:/Users/jeffrey/LifeInsurancePolicy/contracts/LifeInsurance.sol",
  "compiler": {
    "name": "solc",
    "version": "0.6.0+commit.26b70077.Emscripten.clang"
  },
  "schemaVersion": "3.3.2",
  "updatedAt": "2020-11-29T18:58:15.838Z",
  "devdoc": {
    "methods": {}
  },
  "userdoc": {
    "methods": {}
  }
}