{
  "contractName": "LifeInsurance",
  "abi": [
    {
      "inputs": [],
      "stateMutability": "nonpayable",
      "type": "constructor"
    },
    {
      "inputs": [
        {
          "internalType": "uint256",
          "name": "",
          "type": "uint256"
        }
      ],
      "name": "beneficiary",
      "outputs": [
        {
          "internalType": "string",
          "name": "relationship",
          "type": "string"
        },
        {
          "internalType": "string",
          "name": "name",
          "type": "string"
        }
      ],
      "stateMutability": "view",
      "type": "function",
      "constant": true
    },
    {
      "inputs": [],
      "name": "cashValue",
      "outputs": [
        {
          "internalType": "uint256",
          "name": "",
          "type": "uint256"
        }
      ],
      "stateMutability": "view",
      "type": "function",
      "constant": true
    },
    {
      "inputs": [],
      "name": "premiums",
      "outputs": [
        {
          "internalType": "uint256",
          "name": "",
          "type": "uint256"
        }
      ],
      "stateMutability": "view",
      "type": "function",
      "constant": true
    },
    {
      "inputs": [],
      "name": "getCashValue",
      "outputs": [
        {
          "internalType": "uint256",
          "name": "",
          "type": "uint256"
        }
      ],
      "stateMutability": "view",
      "type": "function",
      "constant": true
    },
    {
      "inputs": [],
      "name": "setPremiums",
      "outputs": [],
      "stateMutability": "nonpayable",
      "type": "function"
    },
    {
      "inputs": [
        {
          "internalType": "uint256",
          "name": "percent",
          "type": "uint256"
        }
      ],
      "name": "percCashValue",
      "outputs": [
        {
          "internalType": "uint256",
          "name": "",
          "type": "uint256"
        }
      ],
      "stateMutability": "view",
      "type": "function",
      "constant": true
    },
    {
      "inputs": [
        {
          "internalType": "uint256",
          "name": "_id",
          "type": "uint256"
        },
        {
          "internalType": "string",
          "name": "_relationship",
          "type": "string"
        },
        {
          "internalType": "string",
          "name": "_name",
          "type": "string"
        }
      ],
      "name": "beneficiaries",
      "outputs": [],
      "stateMutability": "nonpayable",
      "type": "function"
    },
    {
      "inputs": [
        {
          "internalType": "uint256",
          "name": "_id",
          "type": "uint256"
        },
        {
          "internalType": "string",
          "name": "_policy",
          "type": "string"
        },
        {
          "internalType": "string",
          "name": "_savings",
          "type": "string"
        }
      ],
      "name": "policyType",
      "outputs": [],
      "stateMutability": "nonpayable",
      "type": "function"
    },
    {
      "inputs": [
        {
          "internalType": "uint256",
          "name": "_id",
          "type": "uint256"
        },
        {
          "internalType": "string",
          "name": "_extraCoverage",
          "type": "string"
        },
        {
          "internalType": "string",
          "name": "_charges",
          "type": "string"
        }
      ],
      "name": "extraInsurance",
      "outputs": [],
      "stateMutability": "nonpayable",
      "type": "function"
    },
    {
      "inputs": [
        {
          "internalType": "address payable",
          "name": "beneficiaryAddr",
          "type": "address"
        },
        {
          "internalType": "uint256",
          "name": "percPayout",
          "type": "uint256"
        }
      ],
      "name": "payBenefit",
      "outputs": [],
      "stateMutability": "payable",
      "type": "function",
      "payable": true
    }
  ],
  "bytecode": "0x608060405234801561001057600080fd5b506934f086f3b33b6840000060038190555060008060006101000a81548160ff0219169083600181111561004057fe5b0217905550610d6e806100546000396000f3fe6080604052600436106100915760003560e01c806397fbf0511161005957806397fbf05114610502578063bae6f8ae1461052d578063d744a9101461057b578063de6a674014610592578063ea893c17146105bd57610091565b806346ef761c146100965780635daa3160146101ff57806372ed6b751461031f5780638674063b1461036e57806387f89ed414610399575b600080fd5b3480156100a257600080fd5b506101fd600480360360608110156100b957600080fd5b8101908080359060200190929190803590602001906401000000008111156100e057600080fd5b8201836020820111156100f257600080fd5b8035906020019184600183028401116401000000008311171561011457600080fd5b91908080601f016020809104026020016040519081016040528093929190818152602001838380828437600081840152601f19601f8201169050808301925050505050505091929192908035906020019064010000000081111561017757600080fd5b82018360208201111561018957600080fd5b803590602001918460018302840111640100000000831117156101ab57600080fd5b91908080601f016020809104026020016040519081016040528093929190818152602001838380828437600081840152601f19601f820116905080830192505050505050509192919290505050610726565b005b34801561020b57600080fd5b506102386004803603602081101561022257600080fd5b81019080803590602001909291905050506107b3565b604051808060200180602001838103835285818151815260200191508051906020019080838360005b8381101561027c578082015181840152602081019050610261565b50505050905090810190601f1680156102a95780820380516001836020036101000a031916815260200191505b50838103825284818151815260200191508051906020019080838360005b838110156102e25780820151818401526020810190506102c7565b50505050905090810190601f16801561030f5780820380516001836020036101000a031916815260200191505b5094505050505060405180910390f35b34801561032b57600080fd5b506103586004803603602081101561034257600080fd5b8101908080359060200190929190505050610907565b6040518082815260200191505060405180910390f35b34801561037a57600080fd5b5061038361093d565b6040518082815260200191505060405180910390f35b3480156103a557600080fd5b50610500600480360360608110156103bc57600080fd5b8101908080359060200190929190803590602001906401000000008111156103e357600080fd5b8201836020820111156103f557600080fd5b8035906020019184600183028401116401000000008311171561041757600080fd5b91908080601f016020809104026020016040519081016040528093929190818152602001838380828437600081840152601f19601f8201169050808301925050505050505091929192908035906020019064010000000081111561047a57600080fd5b82018360208201111561048c57600080fd5b803590602001918460018302840111640100000000831117156104ae57600080fd5b91908080601f016020809104026020016040519081016040528093929190818152602001838380828437600081840152601f19601f820116905080830192505050505050509192919290505050610947565b005b34801561050e57600080fd5b506105176109d4565b6040518082815260200191505060405180910390f35b6105796004803603604081101561054357600080fd5b81019080803573ffffffffffffffffffffffffffffffffffffffff169060200190929190803590602001909291905050506109da565b005b34801561058757600080fd5b50610590610a3f565b005b34801561059e57600080fd5b506105a7610a49565b6040518082815260200191505060405180910390f35b3480156105c957600080fd5b50610724600480360360608110156105e057600080fd5b81019080803590602001909291908035906020019064010000000081111561060757600080fd5b82018360208201111561061957600080fd5b8035906020019184600183028401116401000000008311171561063b57600080fd5b91908080601f016020809104026020016040519081016040528093929190818152602001838380828437600081840152601f19601f8201169050808301925050505050505091929192908035906020019064010000000081111561069e57600080fd5b8201836020820111156106b057600080fd5b803590602001918460018302840111640100000000831117156106d257600080fd5b91908080601f016020809104026020016040519081016040528093929190818152602001838380828437600081840152601f19601f820116905080830192505050505050509192919290505050610a4f565b005b60016000806101000a81548160ff0219169083600181111561074457fe5b021790555060405180604001604052808381526020018281525060046000858152602001908152602001600020600082015181600001908051906020019061078d929190610c72565b5060208201518160010190805190602001906107aa929190610c72565b50905050505050565b6004602052806000526040600020600091509050806000018054600181600116156101000203166002900480601f01602080910402602001604051908101604052809291908181526020018280546001816001161561010002031660029004801561085f5780601f106108345761010080835404028352916020019161085f565b820191906000526020600020905b81548152906001019060200180831161084257829003601f168201915b505050505090806001018054600181600116156101000203166002900480601f0160208091040260200160405190810160405280929190818152602001828054600181600116156101000203166002900480156108fd5780601f106108d2576101008083540402835291602001916108fd565b820191906000526020600020905b8154815290600101906020018083116108e057829003601f168201915b5050505050905082565b60008061091f83600354610adc90919063ffffffff16565b9050610935606482610b6290919063ffffffff16565b915050919050565b6000600354905090565b60016000806101000a81548160ff0219169083600181111561096557fe5b02179055506040518060400160405280838152602001828152506006600085815260200190815260200160002060008201518160000190805190602001906109ae929190610c72565b5060208201518160010190805190602001906109cb929190610c72565b50905050505050565b60035481565b60006109e582610907565b90508034146109f357600080fd5b8273ffffffffffffffffffffffffffffffffffffffff166108fc349081150290604051600060405180830381858888f19350505050158015610a39573d6000803e3d6000fd5b50505050565b603c600281905550565b60025481565b60016000806101000a81548160ff02191690836001811115610a6d57fe5b0217905550604051806040016040528083815260200182815250600560008581526020019081526020016000206000820151816000019080519060200190610ab6929190610c72565b506020820151816001019080519060200190610ad3929190610c72565b50905050505050565b600080831415610aef5760009050610b5c565b6000828402905082848281610b0057fe5b0414610b57576040517f08c379a0000000000000000000000000000000000000000000000000000000008152600401808060200182810382526021815260200180610d186021913960400191505060405180910390fd5b809150505b92915050565b6000610ba483836040518060400160405280601a81526020017f536166654d6174683a206469766973696f6e206279207a65726f000000000000815250610bac565b905092915050565b60008083118290610c58576040517f08c379a00000000000000000000000000000000000000000000000000000000081526004018080602001828103825283818151815260200191508051906020019080838360005b83811015610c1d578082015181840152602081019050610c02565b50505050905090810190601f168015610c4a5780820380516001836020036101000a031916815260200191505b509250505060405180910390fd5b506000838581610c6457fe5b049050809150509392505050565b828054600181600116156101000203166002900490600052602060002090601f016020900481019282601f10610cb357805160ff1916838001178555610ce1565b82800160010185558215610ce1579182015b82811115610ce0578251825591602001919060010190610cc5565b5b509050610cee9190610cf2565b5090565b610d1491905b80821115610d10576000816000905550600101610cf8565b5090565b9056fe536166654d6174683a206d756c7469706c69636174696f6e206f766572666c6f77a26469706673582212208ffbf0d17f47ce8e749722f486b112c0aec0cba0aaed941ec596af8a06d9583664736f6c63430006000033",
  "source": "pragma solidity ^0.6.0;\r\n\r\nimport'@openzeppelin/contracts/math/safemath.sol';\r\n\r\ncontract LifeInsurance{\r\n    using SafeMath for uint;\r\n    enum Statuses {Alive, Deceased}\r\n    Statuses currentStatus;\r\n    \r\n    address payable insurer;\r\n    address payable insured;\r\n    uint public premiums;\r\n    uint public cashValue;\r\n    \r\n    mapping(uint=>Beneficiary) public beneficiary;\r\n    mapping(uint=> Selection) insuranceType;\r\n    mapping(uint=>moreOptions) Rider;\r\n    \r\n    constructor() public{\r\n\r\n        cashValue = 250000 ether;\r\n        currentStatus= Statuses.Alive;\r\n    }\r\n    \r\n    struct Beneficiary{\r\n        string relationship;\r\n        string name;\r\n    }\r\n    \r\n    struct Selection{\r\n        string policy;\r\n        string savings;\r\n    }\r\n    \r\n    struct moreOptions{\r\n        string extraCoverage;\r\n        string charges;\r\n    }\r\n\r\n    function getCashValue() public view returns(uint){\r\n        return cashValue;\r\n    }\r\n    \r\n    function setPremiums() public {\r\n        premiums = 60;\r\n    }\r\n    \r\n   \r\n    function percCashValue(uint percent) public view returns(uint){\r\n        uint numerator = cashValue.mul(percent);\r\n        return numerator.div(100);\r\n    }\r\n    \r\n    function beneficiaries(uint _id, string memory _relationship, string memory _name) public {\r\n        currentStatus= Statuses.Deceased;\r\n        beneficiary[_id]= Beneficiary(_relationship, _name);\r\n    }\r\n    \r\n    function policyType(uint _id, string memory _policy, string memory _savings) public {\r\n        currentStatus= Statuses.Deceased;\r\n        insuranceType[_id]= Selection(_policy,_savings);\r\n    }\r\n    \r\n    function extraInsurance(uint _id, string memory _extraCoverage, string memory _charges) public {\r\n        currentStatus= Statuses.Deceased;\r\n        Rider[_id]= moreOptions(_extraCoverage,_charges);\r\n    }\r\n    function payBenefit(address payable beneficiaryAddr, uint percPayout) public payable {\r\n        uint payoutAmt = percCashValue(percPayout);\r\n        require(msg.value==payoutAmt);\r\n        beneficiaryAddr.transfer(msg.value);\r\n    }\r\n}\r\n\r\n// contract Distribution is Lifeinsurance {\r\n//     address payable public owner;\r\n \r\n//     mapping(address=>mapping(string=>Beneficiary))public myBeneficiary;\r\n    \r\n//      constructor()public {\r\n//         owner = msg.sender;\r\n//      }\r\n     \r\n//      function beneficts() public payable{\r\n//         owner.transfer(msg.value);\r\n//      }\r\n     \r\n//      function trust(uint _id, string memory name, string memory relationship) public payable {\r\n//          owner;\r\n//      }\r\n// }",
  "sourcePath": "C:/Users/jeffrey/LifeInsurancePolicy/contracts/LifeInsurance.sol",
  "compiler": {
    "name": "solc",
    "version": "0.6.0+commit.26b70077.Emscripten.clang"
  },
  "schemaVersion": "3.3.3",
  "updatedAt": "2021-02-04T01:43:46.748Z",
  "networkType": "ethereum",
  "devdoc": {
    "methods": {}
  },
  "userdoc": {
    "methods": {}
  }
}